:020000020000FC
:020000001CC022
:02001000F6C137
:02002C00A1C36E
:10003800E3C30FEF04B90AB90FEF0AB908E307B928
:10004800409A419A429A00E0009380000DE30093A1
:10005800890008E0009388000CE00093810002E02A
:1000680004BD0FEF07BD05E005BD02E000936E007B
:1000780005BB02E000936F0006BB02E00093680036
:1000880007E000936C0000270093270100930E01FE
:1000980000930F01789400270093090100930A0147
:1000A80000930B01009302010FE1009305010CE09E
:1000B8000093060101E0009307010093080100275F
:1000C800009304010093030150900301609007011D
:1000D8007090040180900801561409F009C0781442
:1000E80009F006C010910201113009F001C0459ACB
:1000F80000910301009310010E945C030E946C03AD
:100108000091150100931B010091160100931C0139
:1001180000910401009310010E945C030E946C038B
:100128000091150100931D010091160100931E0115
:1001380000910501009310010E945C030E946C036A
:100148000091150100931F010091160100932001F1
:1001580000910601009310010E945C030E946C0349
:1001680000911501009321010091160100932201CD
:1001780000910701009310010E945C030E946C0328
:1001880000911501009323010091160100932401A9
:1001980000910801009310010E945C030E946C0307
:1001A8000091150100932501009116010093260185
:1001B80010910901103089F0113081F0123079F076
:1001C800133071F0143069F0153061F0163059F0C1
:1001D800173051F0183049F077CF08C024C041C01B
:1001E8005EC079C095C0B1C0CDC0E8C0449800E0F9
:1001F80000930A010093270100930E0100930F0159
:1002080000911B010093170100911C010093180134
:1002180000911D010093190100911E0100931A011C
:100228000E94830351CF449A02E000930A0100E040
:100238000093270100930E0100930F0100911F0105
:1002480000931701009120010093180100912101EA
:10025800009319010091220100931A010E9483035F
:1002680033CF449801E000930A0100E0009327018E
:1002780000930E0100930F010091230100931701D1
:1002880000912401009318010091250100931901A0
:100298000091260100931A010E94830315CF00E004
:1002A80000930A0101E000932701002700930F0142
:1002B80000911B010093170100911C010093180184
:1002C80000911D010093190100911E0100931A016C
:1002D8000E948303F9CE449800E000930A0102E0EB
:1002E80000932701002700930E0100911B01009342
:1002F800170100911C010093180100911D01009342
:10030800190100911E0100931A010E948303DCCE9B
:10031800449A02E000930A0101E0009327010027B4
:1003280000930F0100911F01009317010091200114
:1003380000931801009121010093190100912201F5
:1003480000931A010E948303BFCE449A02E00093EF
:100358000A0102E000932701002700930E01009193
:100368001F010093170100912001009318010091CB
:100378002101009319010091220100931A010E94A2
:100388008303A2CE449801E000930A010093270159
:10039800002700930F01009123010093170100919A
:1003A800240100931801009125010093190100917F
:1003B800260100931A010E94830386CE449801E027
:1003C80000930A0102E000932701002700930E0121
:1003D8000091230100931701009124010093180153
:1003E80000912501009319010091260100931A013B
:1003F8000E94830369CE0E9421040E94210406B151
:100408000770063039F0053031F0033029F001303B
:1004180021F04DC103C023C0A8C028C11091090113
:100428001395113099F0123091F0133089F014308F
:1004380081F0153079F0163071F0173069F0183006
:1004480061F019305AF41093090131C114C116C171
:1004580018C11AC11CC11EC120C122C124C11091DA
:100468000901133059F0143051F0153049F01630A5
:1004780041F0173039F0183031F019C105C012C0F9
:100488001FC049C054C062C0109103011395109356
:1004980003011C331AF41093030109C111271093A7
:1004A800030105C110910401139518312AF4109322
:1004B8000401FDC010930401112710930401F7C033
:1004C800A0910601A23069F0A13079F0A33069F05B
:1004D800A53059F0A73049F0A83039F0AC3029F0F0
:1004E80008C0CDE1C093010108C0C0E2C09301017A
:1004F80004C0CFE1C093010100C01091050113951C
:10050800F09101011F171AF410930501D0C011E0F2
:1005180010930501CCC01091060113951D301AF4F3
:1005280010930601C4C011E010930601C0C0C1E0D9
:10053800C09302011091070113951C3319F0109311
:100548000701B5C0112710930701B1C0C1E0C093DE
:100558000201109108011395183119F01093080140
:10056800A6C0112710930801A2C0109109011330E9
:1005780059F0143051F0153049F0163041F0173069
:1005880039F0183031F093C005C010C01BC044C00A
:100598004FC05DC0109103011A9510301CF01093E4
:1005A800030185C01BE31093030181C0109104016E
:1005B8001A9510301CF01093040179C017E11093BC
:1005C800040175C0A0910601A23069F0A13079F04C
:1005D800A33069F0A53059F0A73049F0A83039F0B8
:1005E800AC3029F008C0CCE1C093010108C0CFE1CC
:1005F800C093010104C0CEE1C093010100C0109175
:1006080005011A9511301CF01093050150C0109186
:100618000101109305014BC0109106011A95113084
:100628001CF01093060143C01CE0109306013FC064
:10063800C1E0C0930201109107011A9510301CF017
:100648001093070134C01BE31093070130C0C1E0C9
:10065800C0930201109108011A9510301CF01093F4
:10066800080125C017E11093080121C0CC27C093C9
:10067800020145981CC01093090119C01093090183
:1006880016C01093090113C01093090110C01093EC
:1006980009010DC0109309010AC01093090107C090
:1006A8001093090104C000270093090100C01895A0
:1006B80030911001432E11273A5010F01395FCCFBA
:1006C800109312010AE0109F4018409211010895FA
:1006D8000F931F9300911101F8E0E0E6E00F002767
:1006E80004910093150100911201F8E0E0E6E00F93
:1006F80000270491009316011F910F9108950F93FD
:100708001F9340910E014F3FA1F00091170105B9C9
:10071800007408630BB90E9421040C630BB90091A3
:10072800180105B9007404630BB90E9421040C6315
:100738000BB940910F014F3FA1F00091190105B984
:1007480000740C620BB90E9421040C630BB9009170
:100758001A0105B900740C610BB90E9421040C63DD
:100768000BB91F910F91089570910A01703029F00B
:10077800713079F0723079F010C080910B0180955A
:1007880080930B018F3F09F002C0439A06C043983B
:1007980004C0439A02C0439800C010910C011395FD
:1007A800123019F010930C0126C0112710930C0178
:1007B8000091000103950C3319F0009300011BC050
:1007C8001127109300010091030103950C3319F0D0
:1007D8000093030110C01127109303010091040135
:1007E800039500930401083109F005C011271093FF
:1007F80003011093040118950091280103950A300C
:1008080009F018C0002700932801409127014030C3
:1008180029F0413021F0423041F00CC00BC010915A
:100828000E01109510930E0105C010910F0110953F
:1008380010930F0100932801189544275527662720
:100848004AE05AE069E16A9500000000E1F75A952C
:10085800C9F74A95B1F708953F065B4F666D7D0766
:020868007F6FA0
:00000001FF
